{
  "abi": [
    {
      "inputs": [
        {
          "internalType": "address",
          "name": "_receiver",
          "type": "address"
        },
        {
          "internalType": "contract ILendingPoolAddressesProvider",
          "name": "_provider",
          "type": "address"
        },
        {
          "internalType": "address",
          "name": "_TREASURY",
          "type": "address"
        }
      ],
      "stateMutability": "nonpayable",
      "type": "constructor"
    },
    {
      "anonymous": false,
      "inputs": [
        {
          "indexed": false,
          "internalType": "contract ERC20",
          "name": "sellToken",
          "type": "address"
        },
        {
          "indexed": false,
          "internalType": "contract ERC20",
          "name": "buyToken",
          "type": "address"
        },
        {
          "indexed": false,
          "internalType": "uint256",
          "name": "boughtAmount",
          "type": "uint256"
        }
      ],
      "name": "BoughtTokens",
      "type": "event"
    },
    {
      "anonymous": false,
      "inputs": [
        {
          "indexed": false,
          "internalType": "uint256",
          "name": "amount",
          "type": "uint256"
        }
      ],
      "name": "ClaimedRewardTokens",
      "type": "event"
    },
    {
      "inputs": [],
      "name": "CBETH",
      "outputs": [
        {
          "internalType": "contract ERC20",
          "name": "",
          "type": "address"
        }
      ],
      "stateMutability": "view",
      "type": "function"
    },
    {
      "inputs": [],
      "name": "LENDING_POOL",
      "outputs": [
        {
          "internalType": "address",
          "name": "",
          "type": "address"
        }
      ],
      "stateMutability": "view",
      "type": "function"
    },
    {
      "inputs": [],
      "name": "REVISION",
      "outputs": [
        {
          "internalType": "uint256",
          "name": "",
          "type": "uint256"
        }
      ],
      "stateMutability": "view",
      "type": "function"
    },
    {
      "inputs": [],
      "name": "STAKING",
      "outputs": [
        {
          "internalType": "address",
          "name": "",
          "type": "address"
        }
      ],
      "stateMutability": "view",
      "type": "function"
    },
    {
      "inputs": [],
      "name": "TREASURY",
      "outputs": [
        {
          "internalType": "address",
          "name": "",
          "type": "address"
        }
      ],
      "stateMutability": "view",
      "type": "function"
    },
    {
      "inputs": [],
      "name": "WETH",
      "outputs": [
        {
          "internalType": "contract IWETH",
          "name": "",
          "type": "address"
        }
      ],
      "stateMutability": "view",
      "type": "function"
    },
    {
      "inputs": [
        {
          "internalType": "contract ERC20[]",
          "name": "_tokens",
          "type": "address[]"
        }
      ],
      "name": "approveProxy",
      "outputs": [],
      "stateMutability": "nonpayable",
      "type": "function"
    },
    {
      "inputs": [],
      "name": "claim",
      "outputs": [],
      "stateMutability": "nonpayable",
      "type": "function"
    },
    {
      "inputs": [
        {
          "components": [
            {
              "internalType": "contract ERC20",
              "name": "sellToken",
              "type": "address"
            },
            {
              "internalType": "bytes",
              "name": "swapCallData",
              "type": "bytes"
            }
          ],
          "internalType": "struct TokensConverter.SimpleTrade[]",
          "name": "trades",
          "type": "tuple[]"
        }
      ],
      "name": "convert",
      "outputs": [],
      "stateMutability": "nonpayable",
      "type": "function"
    },
    {
      "inputs": [
        {
          "components": [
            {
              "internalType": "contract ERC20",
              "name": "sellToken",
              "type": "address"
            },
            {
              "internalType": "address",
              "name": "spender",
              "type": "address"
            },
            {
              "internalType": "bytes",
              "name": "swapCallData",
              "type": "bytes"
            }
          ],
          "internalType": "struct TokensConverter.Trade[]",
          "name": "trades",
          "type": "tuple[]"
        }
      ],
      "name": "convertWithSpender",
      "outputs": [],
      "stateMutability": "nonpayable",
      "type": "function"
    },
    {
      "inputs": [],
      "name": "depositETH",
      "outputs": [],
      "stateMutability": "payable",
      "type": "function"
    },
    {
      "inputs": [],
      "name": "exchangeProxy",
      "outputs": [
        {
          "internalType": "address",
          "name": "",
          "type": "address"
        }
      ],
      "stateMutability": "view",
      "type": "function"
    },
    {
      "inputs": [
        {
          "internalType": "contract ILendingPoolAddressesProvider",
          "name": "provider",
          "type": "address"
        }
      ],
      "name": "initialize",
      "outputs": [],
      "stateMutability": "nonpayable",
      "type": "function"
    },
    {
      "inputs": [],
      "name": "keeper",
      "outputs": [
        {
          "internalType": "address",
          "name": "",
          "type": "address"
        }
      ],
      "stateMutability": "view",
      "type": "function"
    },
    {
      "inputs": [],
      "name": "provider",
      "outputs": [
        {
          "internalType": "contract ILendingPoolAddressesProvider",
          "name": "",
          "type": "address"
        }
      ],
      "stateMutability": "view",
      "type": "function"
    },
    {
      "inputs": [
        {
          "internalType": "contract ERC20",
          "name": "token",
          "type": "address"
        },
        {
          "internalType": "uint256",
          "name": "amount",
          "type": "uint256"
        }
      ],
      "name": "recoverToken",
      "outputs": [],
      "stateMutability": "nonpayable",
      "type": "function"
    },
    {
      "inputs": [
        {
          "internalType": "address",
          "name": "_keeper",
          "type": "address"
        }
      ],
      "name": "updateKeeper",
      "outputs": [],
      "stateMutability": "nonpayable",
      "type": "function"
    },
    {
      "inputs": [
        {
          "internalType": "uint256",
          "name": "amount",
          "type": "uint256"
        }
      ],
      "name": "withdrawETH",
      "outputs": [],
      "stateMutability": "nonpayable",
      "type": "function"
    },
    {
      "stateMutability": "payable",
      "type": "receive"
    }
  ],
  "bytecode": {
    "object": "0x610100604052600080553480156200001657600080fd5b5060405162001ad538038062001ad58339810160408190526200003991620001a1565b6001600160a01b0383166200006b5760405162461bcd60e51b81526004016200006290620001f4565b60405180910390fd5b6001600160a01b038116620000945760405162461bcd60e51b815260040162000062906200024a565b6001600160601b0319606084811b821660805283811b821660e05282901b1660c05260408051630261bf8b60e01b815290516000916001600160a01b03851691630261bf8b91600480820192602092909190829003018186803b158015620000fb57600080fd5b505afa15801562000110573d6000803e3d6000fd5b505050506040513d601f19601f820116820180604052508101906200013691906200017b565b90506001600160a01b038116620001615760405162461bcd60e51b815260040162000062906200021f565b60601b6001600160601b03191660a052506200028e915050565b6000602082840312156200018d578081fd5b81516200019a8162000275565b9392505050565b600080600060608486031215620001b6578182fd5b8351620001c38162000275565b6020850151909350620001d68162000275565b6040850151909250620001e98162000275565b809150509250925092565b6020808252601190820152701830b2323932b9b9afb932b1b2b4bb32b960791b604082015260600190565b6020808252601190820152701830b2323932b9b9afb83937bb34b232b960791b604082015260600190565b60208082526011908201527030616464726573735f747265617375727960781b604082015260600190565b6001600160a01b03811681146200028b57600080fd5b50565b60805160601c60a05160601c60c05160601c60e05160601c6117e2620002f3600039806102fa528061068852806107bd5280610aed52508061040e52806104eb52508061052752806108ee52806109c652508061056e528061065a52506117e26000f3fe60806040526004361061010d5760003560e01c8063b29a814011610095578063c89d3aba11610064578063c89d3aba14610279578063dcfa2d6e14610299578063dde43cba146102ae578063f14210a6146102d0578063f6326fb3146102f057610114565b8063b29a81401461020f578063b4dcfc771461022f578063c4d66de814610244578063c7c30be11461026457610114565b80636b926c07116100dc5780636b926c071461019057806397610f30146101b057806397790217146101c5578063aced1661146101e5578063ad5c4648146101fa57610114565b8063085d4883146101195780630b692dba146101445780632d2c5565146101665780634e71d92d1461017b57610114565b3661011457005b600080fd5b34801561012557600080fd5b5061012e6102f8565b60405161013b91906115bd565b60405180910390f35b34801561015057600080fd5b5061016461015f3660046114ca565b61031c565b005b34801561017257600080fd5b5061012e61040c565b34801561018757600080fd5b50610164610430565b34801561019c57600080fd5b506101646101ab36600461150a565b610607565b3480156101bc57600080fd5b5061012e610658565b3480156101d157600080fd5b506101646101e0366004611492565b61067c565b3480156101f157600080fd5b5061012e610797565b34801561020657600080fd5b5061012e6107a6565b34801561021b57600080fd5b5061016461022a366004611552565b6107b1565b34801561023b57600080fd5b5061012e6108ec565b34801561025057600080fd5b5061016461025f366004611492565b610910565b34801561027057600080fd5b5061012e610a5b565b34801561028557600080fd5b5061016461029436600461150a565b610a73565b3480156102a557600080fd5b5061012e610ac4565b3480156102ba57600080fd5b506102c3610adc565b60405161013b91906116bd565b3480156102dc57600080fd5b506101646102eb36600461157d565b610ae1565b610164610bbc565b7f000000000000000000000000000000000000000000000000000000000000000081565b6034546001600160a01b0316331461033357600080fd5b8060005b818110156104065783838281811061034b57fe5b90506020020160208101906103609190611492565b6001600160a01b031663095ea7b373def1c0ded9bec7f1a1670819833240f027b25eff6000196040518363ffffffff1660e01b81526004016103a39291906115d1565b602060405180830381600087803b1580156103bd57600080fd5b505af11580156103d1573d6000803e3d6000fd5b505050506040513d601f19601f820116820180604052508101906103f59190611532565b6103fe57600080fd5b600101610337565b50505050565b7f000000000000000000000000000000000000000000000000000000000000000081565b6040516370a0823160e01b8152600090732ae3f1ec7f1f5012cfeab0185bfc7aa3cf0dec22906370a082319061046a9030906004016115bd565b60206040518083038186803b15801561048257600080fd5b505afa158015610496573d6000803e3d6000fd5b505050506040513d601f19601f820116820180604052508101906104ba9190611595565b905080156106045760006104cf826005610c19565b9050610510732ae3f1ec7f1f5012cfeab0185bfc7aa3cf0dec227f000000000000000000000000000000000000000000000000000000000000000083610c62565b60405163e8eda9df60e01b81526001600160a01b037f0000000000000000000000000000000000000000000000000000000000000000169063e8eda9df9061059990732ae3f1ec7f1f5012cfeab0185bfc7aa3cf0dec2290858703907f0000000000000000000000000000000000000000000000000000000000000000906000906004016115ea565b600060405180830381600087803b1580156105b357600080fd5b505af11580156105c7573d6000803e3d6000fd5b505050507f6f2430be5a1b132969a7e7c44a32b293f06e8bd445339f08b0ade181b6dc9e51826040516105fa91906116bd565b60405180910390a1505b50565b6034546001600160a01b0316331461061e57600080fd5b8060005b818110156104065761065084848381811061063957fe5b905060200281019061064b919061170b565b610cb4565b600101610622565b7f000000000000000000000000000000000000000000000000000000000000000081565b336001600160a01b03167f00000000000000000000000000000000000000000000000000000000000000006001600160a01b031663aecda3786040518163ffffffff1660e01b815260040160206040518083038186803b1580156106df57600080fd5b505afa1580156106f3573d6000803e3d6000fd5b505050506040513d601f19601f8201168201806040525081019061071791906114ae565b6001600160a01b03161461072a57600080fd5b6034546001600160a01b0382811691161480159061075057506001600160a01b03811615155b6107755760405162461bcd60e51b815260040161076c90611672565b60405180910390fd5b603480546001600160a01b0319166001600160a01b0392909216919091179055565b6034546001600160a01b031681565b6006602160991b0181565b336001600160a01b03167f00000000000000000000000000000000000000000000000000000000000000006001600160a01b031663aecda3786040518163ffffffff1660e01b815260040160206040518083038186803b15801561081457600080fd5b505afa158015610828573d6000803e3d6000fd5b505050506040513d601f19601f8201168201806040525081019061084c91906114ae565b6001600160a01b03161461085f57600080fd5b60405163a9059cbb60e01b81526001600160a01b0383169063a9059cbb9061088d90339085906004016115d1565b602060405180830381600087803b1580156108a757600080fd5b505af11580156108bb573d6000803e3d6000fd5b505050506040513d601f19601f820116820180604052508101906108df9190611532565b6108e857600080fd5b5050565b7f000000000000000000000000000000000000000000000000000000000000000081565b600061091a610ead565b60015490915060ff16806109315750610931610eb2565b8061093d575060005481115b6109785760405162461bcd60e51b815260040180806020018281038252602e815260200180611755602e913960400191505060405180910390fd5b60015460ff16158015610997576001805460ff19168117905560008290555b60405163095ea7b360e01b8152732ae3f1ec7f1f5012cfeab0185bfc7aa3cf0dec229063095ea7b3906109f2907f000000000000000000000000000000000000000000000000000000000000000090600019906004016115d1565b602060405180830381600087803b158015610a0c57600080fd5b505af1158015610a20573d6000803e3d6000fd5b505050506040513d601f19601f82011682018060405250810190610a449190611532565b508015610a56576001805460ff191690555b505050565b73def1c0ded9bec7f1a1670819833240f027b25eff81565b6034546001600160a01b03163314610a8a57600080fd5b8060005b8181101561040657610abc848483818110610aa557fe5b9050602002810190610ab7919061172a565b610eb8565b600101610a8e565b732ae3f1ec7f1f5012cfeab0185bfc7aa3cf0dec2281565b600181565b336001600160a01b03167f00000000000000000000000000000000000000000000000000000000000000006001600160a01b031663aecda3786040518163ffffffff1660e01b815260040160206040518083038186803b158015610b4457600080fd5b505afa158015610b58573d6000803e3d6000fd5b505050506040513d601f19601f82011682018060405250810190610b7c91906114ae565b6001600160a01b031614610b8f57600080fd5b604051339082156108fc029083906000818181858888f193505050501580156108e8573d6000803e3d6000fd5b6006602160991b016001600160a01b031663d0e30db0346040518263ffffffff1660e01b81526004016000604051808303818588803b158015610bfe57600080fd5b505af1158015610c12573d6000803e3d6000fd5b5050505050565b6000610c5b83836040518060400160405280601a81526020017f536166654d6174683a206469766973696f6e206279207a65726f000000000000815250611118565b9392505050565b604080516001600160a01b038416602482015260448082018490528251808303909101815260649091019091526020810180516001600160e01b031663a9059cbb60e01b179052610a569084906111ba565b6040516370a0823160e01b8152732ae3f1ec7f1f5012cfeab0185bfc7aa3cf0dec229060009082906370a0823190610cf09030906004016115bd565b60206040518083038186803b158015610d0857600080fd5b505afa158015610d1c573d6000803e3d6000fd5b505050506040513d601f19601f82011682018060405250810190610d409190611595565b9050600073def1c0ded9bec7f1a1670819833240f027b25eff81610d6760208701876116c6565b604051610d759291906115ad565b60006040518083038185875af1925050503d8060008114610db2576040519150601f19603f3d011682016040523d82523d6000602084013e610db7565b606091505b5050905080610dd85760405162461bcd60e51b815260040161076c9061163b565b610e5e82846001600160a01b03166370a08231306040518263ffffffff1660e01b8152600401610e0891906115bd565b60206040518083038186803b158015610e2057600080fd5b505afa158015610e34573d6000803e3d6000fd5b505050506040513d601f19601f82011682018060405250810190610e589190611595565b90611371565b91507f6dfe06ca5961b140f839316b505392ab4a18727b308bfb7d9275f8ed1cc99f04610e8e6020860186611492565b8484604051610e9f93929190611617565b60405180910390a150505050565b600190565b303b1590565b6000610ec76020830183611492565b6040516370a0823160e01b8152909150600090732ae3f1ec7f1f5012cfeab0185bfc7aa3cf0dec22906370a0823190610f049030906004016115bd565b60206040518083038186803b158015610f1c57600080fd5b505afa158015610f30573d6000803e3d6000fd5b505050506040513d601f19601f82011682018060405250810190610f549190611595565b90506001600160a01b03821663095ea7b3610f756040860160208701611492565b6000196040518363ffffffff1660e01b8152600401610f959291906115d1565b602060405180830381600087803b158015610faf57600080fd5b505af1158015610fc3573d6000803e3d6000fd5b505050506040513d601f19601f82011682018060405250810190610fe79190611532565b610ff057600080fd5b600073def1c0ded9bec7f1a1670819833240f027b25eff8161101560408701876116c6565b6040516110239291906115ad565b60006040518083038185875af1925050503d8060008114611060576040519150601f19603f3d011682016040523d82523d6000602084013e611065565b606091505b50509050806110865760405162461bcd60e51b815260040161076c90611693565b6040516370a0823160e01b81526110c3908390732ae3f1ec7f1f5012cfeab0185bfc7aa3cf0dec22906370a0823190610e089030906004016115bd565b91507f6dfe06ca5961b140f839316b505392ab4a18727b308bfb7d9275f8ed1cc99f046110f36020860186611492565b732ae3f1ec7f1f5012cfeab0185bfc7aa3cf0dec2284604051610e9f93929190611617565b600081836111a45760405162461bcd60e51b81526004018080602001828103825283818151815260200191508051906020019080838360005b83811015611169578181015183820152602001611151565b50505050905090810190601f1680156111965780820380516001836020036101000a031916815260200191505b509250505060405180910390fd5b5060008385816111b057fe5b0495945050505050565b6111cc826001600160a01b03166113b3565b61121d576040805162461bcd60e51b815260206004820152601f60248201527f5361666545524332303a2063616c6c20746f206e6f6e2d636f6e747261637400604482015290519081900360640190fd5b600080836001600160a01b0316836040518082805190602001908083835b6020831061125a5780518252601f19909201916020918201910161123b565b6001836020036101000a0380198251168184511680821785525050505050509050019150506000604051808303816000865af19150503d80600081146112bc576040519150601f19603f3d011682016040523d82523d6000602084013e6112c1565b606091505b509150915081611318576040805162461bcd60e51b815260206004820181905260248201527f5361666545524332303a206c6f772d6c6576656c2063616c6c206661696c6564604482015290519081900360640190fd5b8051156104065780806020019051602081101561133457600080fd5b50516104065760405162461bcd60e51b815260040180806020018281038252602a815260200180611783602a913960400191505060405180910390fd5b6000610c5b83836040518060400160405280601e81526020017f536166654d6174683a207375627472616374696f6e206f766572666c6f7700008152506113ef565b6000813f7fc5d2460186f7233c927e7db2dcc703c0e500b653ca82273b7bfad8045d85a4708181148015906113e757508115155b949350505050565b600081848411156114415760405162461bcd60e51b8152602060048201818152835160248401528351909283926044909101919085019080838360008315611169578181015183820152602001611151565b505050900390565b60008083601f84011261145a578182fd5b50813567ffffffffffffffff811115611471578182fd5b602083019150836020808302850101111561148b57600080fd5b9250929050565b6000602082840312156114a3578081fd5b8135610c5b8161173f565b6000602082840312156114bf578081fd5b8151610c5b8161173f565b600080602083850312156114dc578081fd5b823567ffffffffffffffff8111156114f2578182fd5b6114fe85828601611449565b90969095509350505050565b6000806020838503121561151c578182fd5b823567ffffffffffffffff8111156114f2578283fd5b600060208284031215611543578081fd5b81518015158114610c5b578182fd5b60008060408385031215611564578182fd5b823561156f8161173f565b946020939093013593505050565b60006020828403121561158e578081fd5b5035919050565b6000602082840312156115a6578081fd5b5051919050565b6000828483379101908152919050565b6001600160a01b0391909116815260200190565b6001600160a01b03929092168252602082015260400190565b6001600160a01b03948516815260208101939093529216604082015261ffff909116606082015260800190565b6001600160a01b039384168152919092166020820152604081019190915260600190565b60208082526017908201527f53494d504c455f535741505f43414c4c5f4641494c4544000000000000000000604082015260600190565b60208082526007908201526610b5b2b2b832b960c91b604082015260600190565b60208082526010908201526f14d5d05417d0d0531317d1905253115160821b604082015260600190565b90815260200190565b6000808335601e198436030181126116dc578283fd5b83018035915067ffffffffffffffff8211156116f6578283fd5b60200191503681900382131561148b57600080fd5b60008235603e19833603018112611720578182fd5b9190910192915050565b60008235605e19833603018112611720578182fd5b6001600160a01b038116811461060457600080fdfe436f6e747261637420696e7374616e63652068617320616c7265616479206265656e20696e697469616c697a65645361666545524332303a204552433230206f7065726174696f6e20646964206e6f742073756363656564a2646970667358221220136570913217ad10f8a44bc9fa7fd5d3546f8f78d50521edc7f1a8b5798f7ba564736f6c63430007060033",
    "linkReferences": {}
  },
  "methodIdentifiers": {
    "CBETH()": "dcfa2d6e",
    "LENDING_POOL()": "b4dcfc77",
    "REVISION()": "dde43cba",
    "STAKING()": "97610f30",
    "TREASURY()": "2d2c5565",
    "WETH()": "ad5c4648",
    "approveProxy(address[])": "0b692dba",
    "claim()": "4e71d92d",
    "convert((address,bytes)[])": "6b926c07",
    "convertWithSpender((address,address,bytes)[])": "c89d3aba",
    "depositETH()": "f6326fb3",
    "exchangeProxy()": "c7c30be1",
    "initialize(address)": "c4d66de8",
    "keeper()": "aced1661",
    "provider()": "085d4883",
    "recoverToken(address,uint256)": "b29a8140",
    "updateKeeper(address)": "97790217",
    "withdrawETH(uint256)": "f14210a6"
  },
  "id": 100
}